:020000040800F2
:10000000005000205D1A0008C9190008CB1900082B
:10001000CD190008CF190008D11900080000000010
:10002000000000000000000000000000D3190008DC
:10003000D519000800000000D7190008D9190008D8
:10004000A51A0008A51A0008A51A0008A51A000894
:10005000A51A0008A51A0008A51A0008A51A000884
:10006000A51A0008A51A0008A51A0008A51A000874
:10007000A51A0008A51A0008A51A0008A51A000864
:10008000A51A0008E1190008A51A0008F1190008CE
:10009000011A0008A51A0008A51A0008A51A0008E8
:1000A000A51A0008A51A0008A51A0008A51A000834
:1000B000A51A0008A51A0008A51A0008A51A000824
:1000C000A51A0008A51A0008A51A0008A51A000814
:1000D000A51A0008A51A0008A51A0008A51A000804
:1000E000A51A0008A51A0008A51A000800000000BB
:1000F0000000000000000000000000000000000000
:0C01000000000000000000005FF808F1A3
:10010C0010B5054C237833B9044B13B10448AFF345
:10011C0000800123237010BD10000020000000009F
:10012C00F01A000808B5034B1BB103490348AFF3A1
:10013C00008008BD0000000014000020F01A000828
:10014C0010B504460E4B18784FF47A73B3FBF0F3EA
:10015C000C4A1068B0FBF3F000F06EFA68B90F2C83
:10016C0001D901200AE0002221464FF0FF3000F0B7
:10017C0021FA034B5C60002000E0012010BD00BFA1
:10018C00000000200C00002008B5074A136843F05B
:10019C0010031360032000F0FBF90020FFF7D0FFE1
:1001AC0001F0EAFB002008BD00200240034A116860
:1001BC00034B1B780B441360704700BF38000020C2
:1001CC0000000020014B1868704700BF3800002069
:1001DC00002800F0A18038B5044690F82030D3B147
:1001EC002268136823F002031360FFF7EBFF054648
:1001FC0023685A6812F0020F10D0FFF7E3FF401B80
:10020C000A28F5D9636A43F400336362052384F842
:10021C002030012038BD01F081FAE1E71A6842F084
:10022C0001021A60FFF7CEFF054623685A6812F0E8
:10023C00010F0DD1FFF7C6FF401B0A28F5D9636AE1
:10024C0043F400336362052384F820300120E1E796
:10025C00227E012A3DD01A6822F080021A60637E49
:10026C00012B3BD02268136823F040031360A37E5C
:10027C00012B39D02268136823F020031360E37E2E
:10028C00012B37D02268136843F010031360237FCF
:10029C00012B35D02268136823F008031360637FA9
:1002AC00012B33D02268136823F004031360A36876
:1002BC00E268134322691343626913436268013A8B
:1002CC0021681343CB6100206062012384F8203045
:1002DC00A0E71A6842F080021A60C0E7226813682F
:1002EC0043F040031360C2E72268136843F0200315
:1002FC001360C4E72268136823F010031360C6E789
:10030C002268136843F008031360C8E72268136877
:10031C0043F004031360CAE701207047704770472D
:10032C007047704770477047704770477047704709
:10033C007047704770472DE9F84F054603685C69B4
:10034C005F689E68D3F80C90D3F81080D3F818A08F
:10035C0014F0010F5AD016F0010F17D001229A6039
:10036C0016F0020F08D116F0040F30D116F0080F5A
:10037C0007D04FF4805B0BE0FFF7D0FF4FF0000B82
:10038C0006E0FFF7CEFF4FF0000B01E04FF0000B43
:10039C0016F4807F0BD02B684FF480729A6016F4A1
:1003AC00007F17D116F4806F18D04BF4005B16F455
:1003BC00803F2DD02B684FF480329A6016F4003FAA
:1003CC0016D116F4802F17D04BF4004B20E04FF4CD
:1003DC00006BDDE72846FFF7A2FFE8E716F4006F95
:1003EC0002D04BF4804BE2E72846FFF79BFFDEE799
:1003FC002846FFF795FF0BE016F4002F02D04BF4C4
:10040C00803B05E02846FFF78EFF01E04FF0000B24
:10041C0014F0080F07D019F0100F04D04BF4007B28
:10042C002B681022DA6014F0040F02D019F0080FB8
:10043C0060D114F0020F04D02B68DB6813F0030FAB
:10044C005FD114F0400F07D018F0100F04D04BF40C
:10045C00806B2B6810221A6114F0200F02D018F058
:10046C00080F52D114F0100F04D02B681B6913F035
:10047C00030F51D114F4003F02D017F0100F4FD1DD
:10048C0014F4803F02D017F0080F50D114F4004F31
:10049C0067D017F0040F61D014F4807F04D01AF0E9
:1004AC00010F01D04BF0010B14F4007F04D01AF0B3
:1004BC00020F01D04BF0020B14F4806F04D01AF031
:1004CC00040F01D04BF0040B14F4006F46D01AF05B
:1004DC00700A43D0BAF1300F48D02FD9BAF1500F6F
:1004EC0047D0BAF1600F47D0BAF1400F31D14BF081
:1004FC00400B2EE02B680822DA602846FFF715FF28
:10050C0097E72846FFF710FF9BE72B6808221A6134
:10051C002846FFF70CFFA5E72846FFF707FFA9E7DA
:10052C002B6810225A602846FFF702FFA8E72B68B9
:10053C0008225A602846FFF7FCFEA7E7BAF1100F15
:10054C0005D0BAF1200F04D14BF0100B01E04BF0A9
:10055C00080B2A68936923F0700393612B680422BB
:10056C005A60BBF1000F0AD1BDE8F88F4BF0200B9D
:10057C00EFE74BF0800BECE74BF4807BE9E76B6A21
:10058C0043EA0B036B622846FFF7D4FEECE700004E
:10059C00074AD36823F4E0631B041B0C000200F42D
:1005AC00E060184340F0BF6040F40030D06070470A
:1005BC0000ED00E030B4174BDB68C3F30223C3F14A
:1005CC000704042C28BF04241D1D062D18D9033B39
:1005DC004FF0FF3505FA04F421EA0401994005FABD
:1005EC0003F322EA0303194300280BDB0901C9B208
:1005FC0000F1604000F5614080F8001330BC70479A
:10060C000023E5E700F00F000901C9B2024B1954B1
:10061C00F4E700BF00ED00E014ED00E0002807DB7C
:10062C0000F01F02400901239340024A42F8203097
:10063C00704700BF00E100E00138B0F1807F0AD2C2
:10064C00064B5860064AF02182F82310002098606F
:10065C0007221A6070470120704700BF10E000E0CD
:10066C0000ED00E060B310B402460168154B0B447A
:10067C001548A0FB03031B099B001364134BD363A6
:10068C00022382F82130086820F47F5020F03000DB
:10069C00536894682343D4682343146923435469EF
:1006AC00234394692343D469234303430B60002001
:1006BC009063012382F8213082F8200010BC70472F
:1006CC0001207047F8FFFDBFCDCCCCCC0000024020
:1006DC0038B5C36B1A6804682568016C04238B4019
:1006EC00134235D015F0040F32D0236813F0200FCD
:1006FC0003D1236823F0040323600368434A934225
:10070C0014D01432934218D01432934217D01432AE
:10071C00934217D01432934217D01432934202D022
:10072C004FF0806203E04FF4800200E00422384B6B
:10073C005A60C36A03B1984738BD4022F7E74FF4BB
:10074C008062F4E74FF48042F1E74FF48022EEE749
:10075C0002238B4013423CD015F0020F39D0236892
:10076C0013F0200F06D1236823F00A032360012322
:10077C0080F821300368254A934214D014329342F6
:10078C001CD0143293421BD0143293421BD014321F
:10079C0093421BD01432934202D04FF0007203E00C
:1007AC004FF4001200E00222194B5A60002380F82B
:1007BC002030836A002BBFD09847BDE72022F3E797
:1007CC004FF40072F0E74FF40052EDE74FF40032B3
:1007DC00EAE7082303FA01F11142ADD015F0080F36
:1007EC00AAD0236823F00E032360026CC16B012393
:1007FC0003FA02F24A60836380F82130002380F808
:10080C002030036B002B97D0984795E708000240E7
:10081C0000000240F0B482B000263246A2E0002D67
:10082C005AD0012D00D1CE68FF2B69D88446FF2BFE
:10083C0069D89500DCF800400F27AF4024EA070484
:10084C0006FA05F52C43CCF800404C6814F0805F98
:10085C0000F087805F4CA56945F00105A561A4698E
:10086C0004F001040194019C9508AF1C5A4C54F8F7
:10087C00274002F00307BF004FF00F0C0CFA07FCE7
:10088C0024EA0C0C554CA04243D004F58064A042E1
:10089C0000F0818004F58064A0427ED004F5806471
:1008AC00A04234D0042435E04D4FBD4214D00BD9B6
:1008BC004C4FBD4210D007F58037BD420CD0A7F588
:1008CC008017BD42B0D107E0A7F58017BD4203D019
:1008DC0007F58037BD42A7D18D687DB1012D08D0B9
:1008EC0044610826A0E7CE6808369DE7CE680C3632
:1008FC009AE70461082697E7002695E7042693E714
:10090C0000F1040C93E7A2F10805AD0092E7032473
:10091C0000E00024BC4044EA0C0402352E4F47F89A
:10092C0025404C6814F4803F39D02F4D2C681C4363
:10093C002C604C6814F4003F37D02B4D6C681C4372
:10094C006C604C6814F4801F35D0274DAC681C4388
:10095C00AC604C6814F4001F33D0234DEC68234377
:10096C00EB6001320B6833FA02F430D0012494406E
:10097C0023409C42F5D14D68122DB7D094D8022D4E
:10098C00B1D07FF64CAF032DB6D0112D7FF44CAF08
:10099C00CE68043648E70124BCE70224BAE7124DBE
:1009AC002C6824EA03042C60C3E70F4D6C6824EA1E
:1009BC0003046C60C5E70C4DAC6824EA0304AC601E
:1009CC00C7E7094DEC6824EA0303EB60C9E702B002
:1009DC00F0BC7047001002400000014000080140CC
:1009EC0000002110000031100004014003685A6916
:1009FC0012F4806F11D06FF480625A61002303638C
:100A0C00202280F83D2080F83E30026C42F0040237
:100A1C00026480F83C300120704700207047F8B524
:100A2C0006460C4617461D4622E0FFF7CBFB069BFD
:100A3C00C01AA84200D8DDB900233363202286F8FF
:100A4C003D2086F83E30326C42F02002326486F84B
:100A5C003C3001201AE033685B6924EA03039BB243
:100A6C00B3FA83F35B099F420FD1B5F1FF3FDCD1A1
:100A7C00C4F30743012BEED033689B6924EA0303CC
:100A8C009BB2B3FA83F35B09EDE70020F8BDF8B530
:100A9C0004460D4616461F463CE01A6842F40072A6
:100AAC001A6023686FF480625A610023236320224A
:100ABC0084F83D2084F83E30226C42F0040222641B
:100ACC0084F83C30012033E0FFF77CFBC01BB042C4
:100ADC0000D8FEB900232363202284F83D2084F83B
:100AEC003E30226C42F02002226484F83C3001201B
:100AFC001EE023685B6925EA03039BB2003318BF31
:100B0C000123A3B123685A6912F4806FC5D1B6F1E1
:100B1C00FF3FD9D1C5F30743012BEAD023689B696A
:100B2C0025EA03039BB2003318BF0123E9E7002039
:100B3C00F8BD70B504460D46164623685B6913F084
:100B4C00800F1CD12046FFF751FFD0B9B5F1FF3F04
:100B5C00F3D0FFF737FB801BA84201D8002DECD156
:100B6C0000232363202284F83D2084F83E30226C3D
:100B7C0042F02002226484F83C30012000E0002086
:100B8C0070BD0120FCE700002DE9F04184B0044663
:100B9C00884616461F460B9D0268136843F4807303
:100BAC00136000950A9B00224FF00111FFF737FFED
:100BBC0020B10123184604B0BDE8F081226808F08A
:100BCC00FE0313612B460A9A20492046FFF75FFF6C
:100BDC0008B10123EEE70023039323685A690392BB
:100BEC009B690393039B2A460A992046FFF7A1FFB2
:100BFC00034658B1236C042B01D00123DAE7226899
:100C0C00136843F4007313600123D3E7012F0ED054
:100C1C002368320A1A612A460A992046FFF789FF8F
:100C2C00034678B1236C042B05D00123C2E722685C
:100C3C00F6B21661BEE72268136843F400731360C2
:100C4C000123B7E72268F6B21661B3E70200010090
:100C5C0070B504460D46164623685B6913F0040F05
:100C6C001CD12046FFF7C2FED0B9B5F1FF3FF3D03F
:100C7C00FFF7A8FA801BA84201D8002DECD1002365
:100C8C002363202284F83D2084F83E30226C42F00D
:100C9C002002226484F83C30012000E0002070BD6A
:100CAC000120FCE7002800F0BE80F8B5044690F85F
:100CBC003D30002B6BD0242384F83D302268136820
:100CCC0023F00103136000F081FC6268584B9A42D8
:100CDC0062D8584B98428CBF00230123002B40F064
:100CEC00A480554BA3FB00239B0C21684A6822F07F
:100CFC003F021A434A6025682A6A22F03F0266685E
:100D0C004B498E424ED8013313432B622568E96957
:100D1C0021F44F4121F0FF016368454A93424BD8BF
:100D2C0001385B00B0FBF3F30133C3F30B03042B6B
:100D3C0038BF04230B43EB6121680B6823F0C0031D
:100D4C00E269206A024313430B6021688B6823F429
:100D5C00034323F0FF032269E068024313438B60D3
:100D6C002168CB6823F0FF036269A0690243134337
:100D7C00CB602268136843F00103136000202064E9
:100D8C00202384F83D30206384F83E00F8BD80F8C1
:100D9C003C3000F069FD8EE7284B98428CBF002355
:100DAC0001239BE74FF4967101FB03F32449A1FB4C
:100DBC0003139B090133A7E7A268BAB9461E03EBDC
:100DCC004307B6FBF7F60136C6F30B06B6FA86F602
:100DDC00760936BBC2B9013803EB4303B0FBF3F31E
:100DEC000133C3F30B0242F40043A3E7461E03EBAB
:100DFC00830707EB8707B6FBF7F60136C6F30B063E
:100E0C00B6FA86F67609E4E7013803EB830303EBC5
:100E1C008303B0FBF3F20132C2F30B0242F4404302
:100E2C0088E7012386E7012070470120AEE700BF69
:100E3C00A08601007F841E0083DE1B43FF083D005B
:100E4C00D34D62102DE9F04182B004460E46174690
:100E5C009846FFF7B7F994F83D30DBB2202B04D05D
:100E6C000223184602B0BDE8F08105460090192314
:100E7C0001224C492046FFF7D2FD002840F08B8020
:100E8C0094F83C30012B00F08880012384F83C302E
:100E9C0023681A6812F0010F03D11A6842F001029C
:100EAC001A602268136823F400631360212384F80A
:100EBC003D30402384F83E3000232364089B63625A
:100ECC00BDF824306385638D2385374BE362019530
:100EDC000A9B009343463A4631462046FFF754FEA0
:100EEC0000285CD1238D002B34D02A460A99204649
:100EFC00FFF71FFE10BB626A236812781A61616AE1
:100F0C004B1C6362238D013B9BB22385628D013A9E
:100F1C0092B262852268506910F0040FE2D0002B67
:100F2C00E0D04B781361636A01336362238D013B1C
:100F3C002385638D013B9BB26385D3E7236C042B24
:100F4C0001D001238DE72268136843F4007313600A
:100F5C00012386E72A460A992046FFF779FE0346C5
:100F6C0058B1236C042B01D001237AE72268136853
:100F7C0043F400731360012373E721680A6842F499
:100F8C0000720A60202284F83D20002284F83E2062
:100F9C0084F83C2065E7022363E7022361E7012321
:100FAC005FE700BF020010000000FFFF82B0084B9B
:100FBC001B68084AA2FB03235B0A00FB03F00190A9
:100FCC0000BF019B5A1E0192002BF9D102B0704751
:100FDC000C000020D34D6210002800F0F58170B594
:100FEC0082B00446036813F0010F2CD0AB4B5B6846
:100FFC0003F00C03042B1DD0A84B5B6803F00C030F
:10100C00082B12D06368B3F5803F41D0002B55D12B
:10101C0003F1804303F504331A6822F480321A601A
:10102C001A6822F480221A6037E09C4B5B6813F438
:10103C00803FE7D0994B1B6813F4003F03D06368E3
:10104C00002B00F0C381236813F0020F76D0934B72
:10105C005B6813F00C0F5FD0904B5B6803F00C03D4
:10106C00082B54D02369002B00F08A808C4B012272
:10107C001A60FFF7A7F80546884B1B6813F0020FA0
:10108C0075D1FFF79FF8401B0228F5D90320A0E18A
:10109C00824A136843F480331360636843B3FFF7E9
:1010AC0091F805467D4B1B6813F4003FCBD1FFF73D
:1010BC0089F8401B6428F5D903208AE1B3F5A02FE9
:1010CC0009D0764B1A6822F480321A601A6822F41E
:1010DC0080221A60E1E703F18043A3F53C331A68E0
:1010EC0042F480221A601A6842F480321A60D4E703
:1010FC00FFF768F80546694B1B6813F4003FA2D054
:10110C00FFF760F8401B6428F5D9032061E1634BBD
:10111C005B6813F4803FA5D1604B1B6813F0020F82
:10112C0004D02369012B01D0012052E15B4A1368E2
:10113C0023F0F803616943EAC1031360236813F0D9
:10114C00080F32D0A369002B5BD0564B01221A60DA
:10115C00FFF738F80546514B5B6A13F0020F21D1AB
:10116C00FFF730F8401B0228F5D9032031E14B4A38
:10117C00136823F0F803616943EAC1031360DDE7E8
:10118C00474B00221A60FFF71DF80546434B1B68BE
:10119C0013F0020FD2D0FFF715F8401B0228F5D937
:1011AC00032016E10120FFF701FF236813F0040F61
:1011BC0000F09880394BDB6913F0805F33D1374BEB
:1011CC00DA6942F08052DA61DB6903F080530193F3
:1011DC00019B0125344B1B6813F4807F25D0E368F9
:1011EC00012B36D0002B4CD103F1804303F5043393
:1011FC001A6A22F001021A621A6A22F004021A62B6
:10120C002CE0284B00221A60FEF7DCFF0546234B2E
:10121C005B6A13F0020FC8D0FEF7D4FF401B022804
:10122C00F5D90320D5E00025D4E71F4A136843F411
:10123C0080731360FEF7C6FF06461B4B1B6813F446
:10124C00807FCCD1FEF7BEFF801B6428F5D903202C
:10125C00BFE0124A136A43F001031362E3687BB3E5
:10126C00FEF7B0FF06460D4B1B6A13F0020F38D188
:10127C00FEF7A8FF801B41F288339842F3D9032074
:10128C00A7E0052B12D0054B1A6A22F001021A6254
:10129C001A6A22F004021A62E0E700BF0010024052
:1012AC000000424280044242007000404C4B1A6ADB
:1012BC0042F004021A621A6A42F001021A62CDE785
:1012CC00FEF780FF0646464B1B6A13F0020F08D050
:1012DC00FEF778FF801B41F288339842F3D9032044
:1012EC0077E0E5B9E369002B72D03D4A526802F011
:1012FC000C02082A56D0022B17D03A4B00221A6047
:10130C00FEF760FF0446364B1B6813F0007F47D096
:10131C00FEF758FF001B0228F5D9032059E0304A8C
:10132C00D36923F08053D361DCE72E4B00221A6083
:10133C00FEF748FF05462A4B1B6813F0007F06D0CA
:10134C00FEF740FF401B0228F5D9032041E0236A39
:10135C00B3F5803F1AD022494B6823F47413226AE8
:10136C00606A024313434B601E4B01221A60FEF766
:10137C0029FF04461A4B1B6813F0007F0ED1FEF7B1
:10138C0021FF001B0228F5D9032022E0144A5368E0
:10139C0023F40033A1680B435360DCE7002018E012
:1013AC00002016E0012B16D00D4B5B6803F4803146
:1013BC00226A914201D001200BE003F47013626A9F
:1013CC0093420AD0012004E001207047012000E084
:1013DC00002002B070BD0120FBE70020F9E700BF40
:1013EC00001002406000424210B487B0164C94E8E2
:1013FC000F000DF1180C0CE90F00238AADF8043026
:10140C00124B5B6803F00C02082A1AD1C3F3834217
:10141C00624412F8102C13F4803F05D10C4800FBE9
:10142C0002F007B010BC7047084B5B68C3F3404335
:10143C00634413F8143C074800FB02F0B0FBF3F0D4
:10144C00EFE70448EDE700BF081B0008001002405E
:10145C0000093D0000127A00002800F0A38070B54E
:10146C000446524B1B6803F007038B420CD24F4AC5
:10147C00136823F007030B431360136803F007038F
:10148C008B4201D0012070BD236813F0020F17D0DE
:10149C0013F0040F04D0464A536843F4E0635360DE
:1014AC00236813F0080F04D0414A536843F4605387
:1014BC0053603F4A536823F0F003A0680343536022
:1014CC000D46236813F0010F31D06368012B20D037
:1014DC00022B25D0364A126812F0020F64D0344920
:1014EC004A6822F0030213434B60FEF76BFE06467C
:1014FC002F4B5B6803F00C036268B3EB820F16D0C2
:10150C00FEF760FE801B41F288339842F0D903202D
:10151C00B9E7274A126812F4003FE0D10120B2E784
:10152C00234A126812F0007FD9D10120ABE71F4B80
:10153C001B6803F00703AB420CD91C4A136823F059
:10154C0007032B431360136803F00703AB4201D06E
:10155C00012098E7236813F0040F06D0144A53684F
:10156C0023F4E063E1680B435360236813F0080F26
:10157C0007D00F4A536823F46053216943EAC1032F
:10158C005360FFF731FF0A4B5B68C3F30313094A3F
:10159C00D35CD840084B1860084B1868FEF7D0FD98
:1015AC00002070E70120704701206CE7002002400A
:1015BC00001002401C1B00080C000020040000203E
:1015CC00014B1868704700BF0C00002008B5FFF7EE
:1015DC00F7FF044B5B68C3F30223034AD35CD84088
:1015EC0008BD00BF001002402C1B000810B50446BB
:1015FC00FEF7E8FD001B312803D90020024B1870C0
:10160C0010BD0120FCE700BF0800002010B584B01D
:10161C00304C00232370FEF7D5FDA06064230293A9
:10162C00012301932B4A00926B22D0212A48FFF709
:10163C0009FC28B1274B9868FFF7D8FF0028EDD19B
:10164C00244C00232370FEF7BDFDA060642302939D
:10165C00012301931F4A00921B22D0211E48FFF741
:10166C00F1FB28B11B4B9868FFF7C0FF0028EDD1A8
:10167C00184C00232370FEF7A5FDA0606423029391
:10168C0001230193134A00921C22D0211248FFF728
:10169C00D9FB28B10F4B9868FFF7A8FF0028EDD1B4
:1016AC000C4C06232370FEF78DFDA060642302937F
:1016BC0001230193074A00921A22D0210648FFF712
:1016CC00C1FB28B1034B9868FFF790FF0028EDD1C0
:1016DC0004B010BD2C0000204000002008B50D48BF
:1016EC000D4B03600923436000238360C3604FF4F8
:1016FC00A022026143610376012242768376C3768F
:10170C0003774377FEF764FD00B908BD00F033F9A9
:10171C00FBE700BFCC0000200064004030B587B070
:10172C000023029303930493059302681F4B9A4280
:10173C0001D007B030BD03F5D633DA6942F0007240
:10174C00DA61DA6902F000720092009A9A6942F04A
:10175C0004029A619B6903F004030193019B06AC9C
:10176C004FF4006344F8103D114D21462846FFF715
:10177C0051F84FF4805302930223039303230593F0
:10178C0021462846FFF746F8002211461320FEF7A3
:10179C0011FF1320FEF742FF002211461420FEF722
:1017AC0009FF1420FEF73AFFC3E700BF00640040B6
:1017BC000008014000B583B00A4B5A6942F001029F
:1017CC005A615B6903F001030193019B00221146EE
:1017DC001120FEF7EFFE1120FEF720FF03B05DF89D
:1017EC0004FB00BF0010024084B00F4B9A6942F01A
:1017FC0020029A619A6902F020020192019A9A6978
:10180C0042F004029A619A6902F004020292029A6E
:10181C009A6942F008029A619B6903F008030393EA
:10182C00039B04B0704700BF0010024008B50B4882
:10183C000B4B03600B4B436000238360C3604FF47E
:10184C008042026143618361C3610362FFF72AFA3C
:10185C0000B908BD00F08FF8FBE700BF4000002086
:10186C0000540040A086010030B587B000230293DD
:10187C0003930493059302681D4B9A4201D007B061
:10188C0030BD04461B4DAB6943F00803AB61AB693B
:10189C0003F008030093009BC023029312230393CD
:1018AC000323059302A91448FEF7B4FFEB6943F434
:1018BC000013EB61EB6903F400130193019B0F48D8
:1018CC000F4B03600023436083608022C26003617E
:1018DC00436183614FF48053C361FEF7C3FE18B9B3
:1018EC00064BA3635C62CAE700F045F8F8E700BF5B
:1018FC000054004000100240000C01403C0100204C
:10190C008000024030B591B00024089409940B94E7
:10191C000C9401940294039404940594012206926D
:10192C004FF4803307930A9202250D950E934FF4D2
:10193C00E0130F9306A8FFF74FFB0F2301930295BB
:10194C0003944FF4806304930594294601A8FFF790
:10195C0083FD11B030BD08B5FEF716FCFFF7D2FFC2
:10196C00FFF742FFFFF726FFFFF7B8FEFFF75EFF1A
:10197C00FFF74CFEFEE7704782B00E4B9A6942F0BF
:10198C0001029A619A6902F001020092009ADA69E6
:10199C0042F08052DA61DB6903F080530193019BC2
:1019AC00054A536823F0E06343F00073536002B0C0
:1019BC00704700BF00100240000001407047FEE776
:1019CC00FEE7FEE7FEE770477047704708B5FEF785
:1019DC00EDFB08BD08B50248FEF77AFE08BD00BF56
:1019EC003C01002008B50248FEF7A5FC08BD00BF6D
:1019FC00CC00002008B50248FEF79DFC08BD00BFD6
:101A0C00CC0000200F4B1A6842F001021A60596892
:101A1C000D4A0A405A601A6822F0847222F480320D
:101A2C001A601A6822F480221A605A6822F4FE02A4
:101A3C005A604FF41F029A60044B4FF000629A6098
:101A4C00704700BF001002400000FFF800ED00E0FE
:101A5C00002103E00B4B5B58435004310A480B4BFD
:101A6C0042189A42F6D30A4A02E0002342F8043B99
:101A7C00084B9A42F9D3FFF7C5FF00F00FF8FFF7B8
:101A8C006AFF70473C1B000800000020100000207B
:101A9C001000002080010020FEE7000070B500253A
:101AAC000C4E0D4CA41BA410A54209D100F01AF841
:101ABC0000250A4E0A4CA41BA410A54205D170BDEA
:101ACC0056F8253098470135EEE756F825309847FB
:101ADC000135F2E7341B0008341B0008341B0008E6
:101AEC00381B0008F8B500BFF8BC08BC9E46704710
:0C1AFC00F8B500BFF8BC08BC9E4670475F
:101B080002030405060708090A0B0C0D0E0F101036
:101B180001020000000000000000000001020304B0
:0C1B280006070809000000000102030489
:041B34003101000873
:041B38000D01000893
:101B3C000100000010000000010000000024F4006F
:0400000508001A5D78
:00000001FF
