:020000040800F2
:1000000000500020912D0008A92C0008AB2C0008FE
:10001000AD2C0008AF2C0008B12C00080000000037
:10002000000000000000000000000000B32C0008E9
:10003000B52C000800000000B72C0008B92C0008FF
:10004000D92D0008D92D0008D92D0008D92D000878
:10005000D92D0008D92D0008D92D0008D92D000868
:10006000D92D0008D92D0008D92D0008D92D000858
:10007000D92D0008D92D0008D92D0008D92D000848
:10008000D92D0008D92D0008D92D0008C12C000851
:10009000D12C0008D92D0008D92D0008D92D000831
:1000A000D92D0008D92D0008D92D0008D92D000818
:1000B000D92D0008D92D0008D92D0008D92D000808
:1000C000D92D0008D92D0008D92D0008D92D0008F8
:1000D000D92D0008D92D0008D92D0008D92D0008E8
:1000E000D92D0008D92D0008D92D000800000000E6
:1000F0000000000000000000000000000000000000
:0C01000000000000000000005FF808F1A3
:10010C0010B5054C237833B9044B13B10448AFF345
:10011C0000800123237010BD0C00002000000000A3
:10012C00242E000808B5034B1BB103490348AFF359
:10013C00008008BD0000000010000020242E0008E4
:10014C0070B54FF0FF0C4CF4E06C1CEA11541DBF61
:10015C001CEA135594EA0C0F95EA0C0F00F0DEF82C
:10016C002C4481EA030621EA4C5123EA4C5350EA11
:10017C00013518BF52EA033541F4801143F4801362
:10018C0038D0A0FB02CE4FF00005E1FB02E506F0F3
:10019C000042E0FB03E54FF00006E1FB03569CF048
:1001AC00000F18BF4EF0010EA4F1FF04B6F5007F4E
:1001BC0064F5407404D25FEA4E0E6D4146EB0606C0
:1001CC0042EAC62141EA55514FEAC52040EA5E5049
:1001DC004FEACE2EB4F1FD0C88BFBCF5E06F1ED8F3
:1001EC00BEF1004F08BF5FEA500E50F1000041EB2A
:1001FC00045170BD06F0004646EA010140EA0200D7
:10020C0081EA0301B4EB5C04C2BFD4EB0C0541EAF8
:10021C00045170BD41F480114FF0000E013C00F30D
:10022C00AB8014F1360FDEBF002001F0004170BD31
:10023C00C4F10004203C35DA0C341BDC04F114044A
:10024C00C4F1200500FA05F320FA04F001FA05F2D6
:10025C0040EA020001F0004221F0004110EBD370A3
:10026C0021FA04F642EB06015EEA430E08BF20EACF
:10027C00D37070BDC4F10C04C4F1200500FA04F372
:10028C0020FA05F001FA04F240EA020001F0004104
:10029C0010EBD37041F100015EEA430E08BF20EA77
:1002AC00D37070BDC4F1200500FA05F24EEA020EBF
:1002BC0020FA04F301FA05F243EA020321FA04F0EE
:1002CC0001F0004121FA04F220EA020000EBD370A5
:1002DC005EEA430E08BF20EAD37070BD94F0000FA5
:1002EC000FD101F00046400041EB010111F4801FD9
:1002FC0008BF013CF7D041EA060195F0000F18BF8A
:10030C00704703F00046520043EB030313F4801FC5
:10031C0008BF013DF7D043EA0603704794EA0C0F7F
:10032C000CEA135518BF95EA0C0F0CD050EA410695
:10033C0018BF52EA4306D1D181EA030101F0004112
:10034C004FF0000070BD50EA410606BF104619463A
:10035C0052EA430619D094EA0C0F02D150EA013646
:10036C0013D195EA0C0F05D152EA03361CBF104687
:10037C0019460AD181EA030101F0004141F0FE4126
:10038C0041F470014FF0000070BD41F0FE4141F4AA
:10039C00780170BD81F0004102E000BF83F00043A2
:1003AC0030B54FEA41044FEA430594EA050F08BF04
:1003BC0090EA020F1FBF54EA000C55EA020C7FEAC8
:1003CC00645C7FEA655C00F0E2804FEA5454D4EB45
:1003DC005555B8BF6D420CDD2C4480EA020281EA0F
:1003EC00030382EA000083EA010180EA020281EA47
:1003FC000303362D88BF30BD11F0004F4FEA013199
:10040C004FF4801C4CEA113102D0404261EB4101A7
:10041C0013F0004F4FEA03334CEA133302D052422D
:10042C0063EB430394EA050F00F0A780A4F10104E9
:10043C00D5F1200E0DDB02FA0EFC22FA05F2801823
:10044C0041F1000103FA0EF2801843FA05F3594109
:10045C000EE0A5F120050EF1200E012A03FA0EFC88
:10046C0028BF4CF0020C43FA05F3C01851EBE371B2
:10047C0001F0004507D54FF0000EDCF1000C7EEBCF
:10048C0000006EEB0101B1F5801F1BD3B1F5001F0D
:10049C000CD349085FEA30004FEA3C0C04F101042C
:1004AC004FEA445212F5800F80F09A80BCF1004F55
:1004BC0008BF5FEA500C50F1000041EB045141EAD7
:1004CC00050130BD5FEA4C0C404141EB0101013CA0
:1004DC0028BFB1F5801FE9D291F0000F04BF01468F
:1004EC000020B1FA81F308BF2033A3F10B03B3F161
:1004FC0020020CDA0C3208DD02F1140CC2F10C02F1
:10050C0001FA0CF021FA02F10CE002F11402D8BF4E
:10051C00C2F1200C01FA02F120FA0CFCDCBF41EA1A
:10052C000C019040E41AA2BF01EB0451294330BDE9
:10053C006FEA04041F3C1CDA0C340EDC04F11404C6
:10054C00C4F1200220FA04F001FA02F340EA03009D
:10055C0021FA04F345EA030130BDC4F10C04C4F1E3
:10056C00200220FA02F001FA04F340EA03002946C3
:10057C0030BD21FA04F0294630BD94F0000F83F40D
:10058C00801306BF81F480110134013D4EE77FEAF0
:10059C00645C18BF7FEA655C29D094EA050F08BF3C
:1005AC0090EA020F05D054EA000C04BF194610461D
:1005BC0030BD91EA030F1EBF0021002030BD5FEA61
:1005CC00545C05D14000494128BF41F0004130BD89
:1005DC0014F580043CBF01F5801130BD01F00045DD
:1005EC0045F0FE4141F470014FF0000030BD7FEA50
:1005FC00645C1ABF194610467FEA655C1CBF0B464B
:10060C00024650EA013406BF52EA033591EA030F61
:10061C0041F4002130BD00BF90F0000F04BF002159
:10062C00704730B54FF4806404F132044FF000058C
:10063C004FF0000150E700BF90F0000F04BF002105
:10064C00704730B54FF4806404F1320410F000456B
:10065C0048BF40424FF000013EE700BF42004FEA66
:10066C00E2014FEA31014FEA02701FBF12F07F43E3
:10067C0093F07F4F81F06051704732F07F4208BF9A
:10068C00704793F07F4F04BF41F40021704730B5A1
:10069C004FF4607401F0004521F000411CE700BFED
:1006AC0050EA010208BF704730B54FF000050AE070
:1006BC0050EA010208BF704730B511F0004502D571
:1006CC00404261EB41014FF4806404F132045FEA73
:1006DC00915C3FF4D8AE4FF003025FEADC0C18BF1C
:1006EC0003325FEADC0C18BF033202EBDC02C2F10E
:1006FC00200300FA03FC20FA02F001FA03FE40EAA0
:10070C000E0021FA02F11444BDE600BF4FEA41028B
:10071C0012F5001215D211D56FF47873B3EB625247
:10072C0012D94FEAC12343F0004343EA505311F06E
:10073C00004F23FA02F018BF404270474FF0000000
:10074C00704750EA013005D111F0004008BF6FF03E
:10075C00004070474FF00000704700BF10B50446D2
:10076C000E4B18784FF47A73B3FBF0F30C4A106805
:10077C00B0FBF3F000F030FB68B90F2C01D901206D
:10078C000AE0002221464FF0FF3000F0E3FA034B61
:10079C005C60002000E0012010BD00BF00000020C4
:1007AC000800002008B5074A136843F010031360D3
:1007BC00032000F0BDFA0020FFF7D0FF02F04CFA46
:1007CC00002008BD00200240034A1168034B1B782F
:1007DC000B441360704700BF340000200000002061
:1007EC00014B1868704700BF3400002038B5044630
:1007FC00FFF7F6FF0546B4F1FF3F02D0044B1B7820
:10080C001C44FFF7EDFF401BA042FAD338BD00BFDC
:10081C0000000020002800F0A18038B5044690F8B4
:10082C002030D3B12268136823F002031360FFF762
:10083C00D7FF054623685A6812F0020F10D0FFF755
:10084C00CFFF401B0A28F5D9636A43F40033636277
:10085C00052384F82030012038BD02F0CBF8E1E705
:10086C001A6842F001021A60FFF7BAFF05462368C6
:10087C005A6812F0010F0DD1FFF7B2FF401B0A2886
:10088C00F5D9636A43F400336362052384F820309E
:10089C000120E1E7227E012A3DD01A6822F0800275
:1008AC001A60637E012B3BD02268136823F040034F
:1008BC001360A37E012B39D02268136823F0200328
:1008CC001360E37E012B37D02268136843F01003CA
:1008DC001360237F012B35D02268136823F00803A3
:1008EC001360637F012B33D02268136823F0040359
:1008FC001360A368E26813432269134362691343CC
:10090C006268013A21681343CB61002060620123C5
:10091C0084F82030A0E71A6842F080021A60C0E721
:10092C002268136843F040031360C2E7226813681F
:10093C0043F020031360C4E72268136823F010030C
:10094C001360C6E72268136843F008031360C8E716
:10095C002268136843F004031360CAE70120704750
:10096C0070B5044690F82050EDB2012D06D0436AC4
:10097C0043F4002343620125284670BD022380F80E
:10098C0020300268136823F001031360FFF728FF7F
:10099C00064623685B6813F0010F0CD0FFF720FFAD
:1009AC00831B0A2BF5D9636A43F400336362052376
:1009BC0084F82030E0E700256562DDE770B490F83C
:1009CC0020400568AD68013CE4B2012C65D815F0F7
:1009DC00E05F5CD0C5F30164022C05D9436A43F493
:1009EC000003436201205DE00125A5401D608B687A
:1009FC00002B39D10E68CB68056843EA465604F1E2
:100A0C0018031B01EE5003680D6904F1180603EB83
:100A1C0006135D600B7D012B31D0D17993791B04CA
:100A2C0043EA0163517943EA0123157901682B43A9
:100A3C0001EB0411C1F88C31D17893781B0443EA93
:100A4C000163517843EA0123117802680B4302EBEE
:100A5C000412C2F88831026818342401135943F087
:100A6C000103135100201DE04D6843EAC503CD6816
:100A7C0006682B4304F118052D017351C3E7036875
:100A8C0003EB0613596841F480715960C5E7436A5A
:100A9C0043F400134362012004E0436A43F48023CF
:100AAC004362012070BC704790F82030013BDBB2F0
:100ABC00012B05D9436A43F480234362012070471C
:100ACC0002685369194351610020704770477047A1
:100ADC007047704770477047704770477047704752
:100AEC007047704770472DE9F84F054603685C69FD
:100AFC00D3F804809F68D3F80CB0D3F810A0D3F8C7
:100B0C00189014F001063BD017F0010616D0012204
:100B1C009A6017F0020F08D117F0040F0CD117F0E0
:100B2C00080606D04FF4805608E0FFF7CFFF0026EA
:100B3C0004E0FFF7CEFF01E04FF4006617F4807F6E
:100B4C000DD02B684FF480729A6017F4007F40F040
:100B5C00868017F4806F00F0868046F4005617F4F8
:100B6C00803F0DD02B684FF480329A6017F4003F11
:100B7C0040F0838017F4802F00F0838046F4004609
:100B8C0014F0080F07D01BF0100F04D046F40076B9
:100B9C002B681022DA6014F0040F02D01BF0080F3F
:100BAC0079D114F0020F04D02B68DB6813F0030F1B
:100BBC0078D114F0400F07D01AF0100F04D046F47F
:100BCC0080662B6810221A6114F0200F02D01AF0E4
:100BDC00080F6BD114F0100F04D02B681B6913F0A5
:100BEC00030F6AD114F4003F02D018F0100F68D133
:100BFC0014F4803F02D018F0080F69D114F4004FA0
:100C0C007AD018F0040F74D014F4807F04D019F04B
:100C1C00010F01D046F0010614F4007F04D019F046
:100C2C00020F01D046F0020614F4806F04D019F0C4
:100C3C00040F01D046F0040614F4006F59D019F0DB
:100C4C00700956D0B9F1400F65D058D8B9F1200FC2
:100C5C005ED0B9F1300F42D146F0200644E0284670
:100C6C00FFF735FF7BE717F4006F02D046F48046A0
:100C7C0075E72846FFF72EFF71E72846FFF728FF98
:100C8C007EE717F4002F02D046F4803678E728462A
:100C9C00FFF721FF74E72B680822DA602846FFF77C
:100CAC001CFF7EE72846FFF717FF82E72B68082218
:100CBC001A612846FFF713FF8CE72846FFF70EFF53
:100CCC0090E72B6810225A602846FFF709FF8FE740
:100CDC002B6808225A602846FFF703FF8EE7B9F10C
:100CEC00100F01D146F008062A68936923F07003AF
:100CFC0093612B6804225A609EB9BDE8F88FB9F154
:100D0C00500F0BD0B9F1600FEED146F48076EBE7C3
:100D1C0046F01006E8E746F04006E5E746F08006A8
:100D2C00E2E76B6A1E436E622846FFF7DBFEE4E7E0
:100D3C00074AD36823F4E0631B041B0C000200F485
:100D4C00E060034343F0BF6343F40033D360704768
:100D5C0000ED00E030B4174BDB68C3F30223C3F1A2
:100D6C000704042C28BF04241D1D062D18D9033B91
:100D7C004FF0FF3505FA04F421EA0401994005FA15
:100D8C0003F322EA0303194300280BDB0901C9B260
:100D9C0000F1604000F5614080F8001330BC7047F2
:100DAC000023E5E700F00F000901C9B2024B19540A
:100DBC00F4E700BF00ED00E014ED00E0002807DBD5
:100DCC0000F01F02400901239340024A42F82030F0
:100DDC00704700BF00E100E00138B0F1807F0AD21B
:100DEC00064B5860064AF02182F8231000209860C8
:100DFC0007221A6070470120704700BF10E000E026
:100E0C0000ED00E0F0B482B000252C46A3E07F4F4B
:100E1C00BB4210D007D97E4FBB420CD007F58037B0
:100E2C00BB4208D013E0A7F58017BB4203D007F5EF
:100E3C007027BB4207D18B68002B58D0012B51D0A7
:100E4C004261082503E0A7F58017BB42F3D0FF2EC3
:100E5C004FD88446FF2E4FD8A200DCF800300F2765
:100E6C00974023EA070305FA02F21343CCF800304B
:100E7C004B6813F0805F6DD0664B9A6942F00102AB
:100E8C009A619B6903F001030193019BA208971CD3
:100E9C00614B53F8273004F00307BF004FF00F0CE1
:100EAC000CFA07FC23EA0C0C5C4B98422AD003F595
:100EBC008063984200F08A8003F58063984200F0CA
:100ECC00878003F5806398421AD004231BE0CD6819
:100EDC00BDE7CD680435BAE7CD680835B7E7CD680E
:100EEC000C35B4E702610825B1E70025AFE704250E
:100EFC00ADE700F1040CADE7A4F108029200ACE7F9
:100F0C00032300E00023BB4043EA0C030232424FB0
:100F1C0047F822304B6813F4803F5BD0404A13688B
:100F2C00334313604B6813F4003F59D03C4A536869
:100F3C00334353604B6813F4801F57D0384A93687F
:100F4C00334393604B6813F4001F55D0344AD36875
:100F5C001E43D66001340B6833FA04F252D00122DE
:100F6C00A24003EA020632EA0303F3D14B68122BC8
:100F7C003FF64DAF122B3FF66AAF01A757F823F09F
:100F8C00430E0008DB0E0008E50E0008F70E000803
:100F9C005B0E00085B0E00085B0E00085B0E000881
:100FAC005B0E00085B0E00085B0E00085B0E000871
:100FBC005B0E00085B0E00085B0E00085B0E000861
:100FCC005B0E0008DF0E0008EB0E000801239AE709
:100FDC00022398E7124A136823EA06031360A1E779
:100FEC000F4A536823EA06035360A3E70C4A93683D
:100FFC0023EA06039360A5E7094AD36823EA0606A9
:10100C00D660A7E702B0F0BC704700BF000022100A
:10101C0000003110001002400000014000080140A7
:10102C00000401400AB10161704709040161704775
:10103C00C36801EA030221EA030141EA02410161AA
:10104C00704703685A6912F4806F01D10020704711
:10105C006FF480625A6100230363202280F83D20E4
:10106C0080F83E30026C42F00402026480F83C309E
:10107C00012070472DE9F04107460D4690461E466B
:10108C0022E0FFF7ADFB069BC01AB04200D8DEB9D8
:10109C0000233B63202287F83D2087F83E303A6CD2
:1010AC0042F020023A6487F83C3001201AE03B6899
:1010BC009C6925EA0404A4B2B4FA84F46409A0453A
:1010CC000FD1B6F1FF3FDCD1C5F30743012BEED1B5
:1010DC003B685C6925EA0404A4B2B4FA84F464099C
:1010EC00EDE70020BDE8F0812DE9F04105460E4604
:1010FC00174698463DE01A6842F400721A602B6855
:10110C006FF480625A6100232B63202285F83D2006
:10111C0085F83E302A6C42F004022A6485F83C3093
:10112C00012034E0FFF75CFBA0EB0800B84200D8CC
:10113C00FFB900232B63202285F83D2085F83E3033
:10114C002A6C42F020022A6485F83C3001201EE013
:10115C002B689C6926EA0404A4B2003C18BF012445
:10116C00A4B12B685A6912F4806FC4D1B7F1FF3F58
:10117C00D8D1C6F30743012BEAD12B685C6926EA68
:10118C000404A4B2003C18BF0124E9E70020BDE828
:10119C00F0810000F0B583B004460D4616461F469C
:1011AC00C36A082B0DD0012B0BD013F5803F08D050
:1011BC00036B122B0AD10268136843F4807313601B
:1011CC0004E02268136843F480731360009733467D
:1011DC0000224FF001112046FFF74CFF80B9236924
:1011EC00B3F5804F16D1236805F0FE051D613B4613
:1011FC00324613492046FFF777FFF8B903B0F0BD2C
:10120C0023681B6813F4807F02D04FF400732364AF
:10121C000320F3E7EB11226803F0060343F0F0031D
:10122C0013613B46324607492046FFF75DFF18B96C
:10123C002368EDB21D61DAE70120DFE70120DDE76D
:10124C0002000100080001002DE9F04184B00446C1
:10125C000D4616461F46C26A01680B6843F480634C
:10126C000B60082A0DD0012A0BD012F5803F08D054
:10127C00036B112B0AD10268136843F4807313605B
:10128C0004E02268136843F48073136000973346BC
:10129C0000224FF001112046FFF7ECFE98B92369AC
:1012AC00B3F5804F19D1236845F00105EDB21D61EE
:1012BC003B4632462A492046FFF716FF00284CD100
:1012CC0004B0BDE8F08123681B6813F4807F02D062
:1012DC004FF4007323640320F2E74FEAE51808F09B
:1012EC000608236848F0F0021A613B4632461D4955
:1012FC002046FFF7F9FE08B10120E1E72368EDB2C3
:10130C001D613B46324616492046FFF7EDFE08B1FB
:10131C000120D5E70022039223685969039199694A
:10132C0003910399196841F4807119600097334651
:10133C004FF001112046FFF79DFE20B9226848F0BE
:10134C00F1031361B4E723681B6813F4807F02D0A8
:10135C004FF4007323640320B2E70120B0E700BF11
:10136C00020001000800010070B504460D46164647
:10137C0023685B6913F0800F1CD12046FFF761FED8
:10138C00D0B9B5F1FF3FF3D0FFF72AFA801BA84282
:10139C0001D8002DECD100232363202284F83D20BA
:1013AC0084F83E30226C42F02002226484F83C30F7
:1013BC00012000E0002070BD0120FCE72DE9F04386
:1013CC0085B004460D4691461F46DDF830800D9ED3
:1013DC000368196841F48071196000964346002235
:1013EC004FF00111FFF746FE60B9236805F0FE05CA
:1013FC001D613346424626492046FFF775FE68B10B
:10140C00012008E023681B6813F4807F02D04FF49E
:10141C0000732364032005B0BDE8F083002303931D
:10142C0023685A6903929B690393039B3246414696
:10143C002046FFF799FF30B9012F0FD123685FFACF
:10144C0089F61E61E7E7236C042B01D00120E2E74B
:10145C002268136843F400731360F7E723684FEABC
:10146C0019221A61324641462046FFF77DFF20B90A
:10147C0023685FFA89F61E61CDE7236C042B01D03B
:10148C000120C8E72268136843F400731360F7E780
:10149C000200010070B504460D46164623685B69D0
:1014AC0013F0040F1CD12046FFF7CBFDD0B9B5F1DA
:1014BC00FF3FF3D0FFF794F9801BA84201D8002D11
:1014CC00ECD100232363202284F83D2084F83E30A5
:1014DC00226C42F02002226484F83C30012000E0AF
:1014EC00002070BD0120FCE770B505460C46164681
:1014FC002B68596911F0400F29D1596911F0100F5F
:10150C0015D1FFF76DF9801BA04201D8002CEFD14B
:10151C0000232B63202285F83D2085F83E302A6C71
:10152C0042F020022A6485F83C30012070BD6FF037
:10153C0010025A6100232B63202285F83D2085F888
:10154C003E302A6C2A6485F83C300120EEE70020FE
:10155C00ECE70000002800F0CC80F8B5044690F8C9
:10156C003D30002B77D0242384F83D30226813685B
:10157C0023F0010313602268136843F400431360E3
:10158C002268136823F40043136000F0DFFE6268E6
:10159C005A4B9A4264D85A4B98428CBF0023012371
:1015AC00002B40F0A880574DA5FB0035AF0C2668EA
:1015BC00716821F03F0141EA9541716021680B6A25
:1015CC0023F03F0365684D4A95424FD87A1C13436C
:1015DC000B622568E96921F44F4121F0FF01636832
:1015EC00464A93424CD801385B00B0FBF3F0013013
:1015FC0040F6FC73184278D0C0F30B030B43EB613D
:10160C0021680B6823F0C003E269206A024313438C
:10161C000B6021688B6823F4034323F0FF032269DA
:10162C00E068024313438B602168CB6823F0FF030F
:10163C006269A06902431343CB602268136843F0CC
:10164C000103136000202064202384F83D302063C4
:10165C0084F83E00F8BD80F83C3001F07BFA82E75C
:10166C00294B98428CBF0023012399E74FF49672C3
:10167C0002FB07F2254DA5FB025292090132A6E7A7
:10168C00A268BAB9461E03EB4307B6FBF7F6013660
:10169C00C6F30B06B6FA86F6760946BBC2B9421EED
:1016AC0003EB4303B2FBF3F20132C2F30B0242F43D
:1016BC000043A3E7461E03EB830707EB8707B6FB44
:1016CC00F7F60136C6F30B06B6FA86F67609E4E7AA
:1016DC00421E03EB830303EB8303B2FBF3F20132F1
:1016EC00C2F30B0242F4404388E7042386E701234C
:1016FC0084E7012070470120ACE700BFA086010001
:10170C007F841E0083DE1B43FF083D00D34D621017
:10171C002DE9F04385B004460F46914698460C9E41
:10172C00FFF75EF8054694F83D00C0B2202804D0BF
:10173C000227384605B0BDE8F08300951923012235
:10174C004F492046FFF796FC002840F0928094F811
:10175C003C30012B00F08F80012384F83C3023684F
:10176C001A6812F0010F03D11A6842F001021A60D4
:10177C002268136823F400631360212384F83D303E
:10178C00102384F83E3000232364C4F82490A4F87A
:10179C002A80638D23853B4BE3622B4632463946C8
:1017AC002046FFF7F7FC0746002866D10023039379
:1017BC0023685A6903929B690393039B11E0236C82
:1017CC00042B01D00127B4E72268136843F400739B
:1017DC001360F7E72A4631462046FFF75BFE0028E8
:1017EC002ED1238D002B36D02A4631462046FFF7CA
:1017FC00BBFD0028E3D1626A236812781A61616A22
:10180C004B1C6362638D9BB2013B9BB26385238D42
:10181C00013B9BB223852268506910F0040FD9D08C
:10182C00002BD7D04B781361636A01336362638DED
:10183C009BB2013B9BB26385238D013B2385C9E79A
:10184C00236C042B01D0012773E72268136843F43F
:10185C0000731360F7E72268136843F40073136096
:10186C00202384F83D30002384F83E3084F83C304B
:10187C005FE702275DE702275BE7012759E700BF17
:10188C00020010000000FFFF2DE9F04389B0044670
:10189C000F4691469846109E00230793FEF7A0FF33
:1018AC00054694F83D00C0B2202804D002273846E3
:1018BC0009B0BDE8F0830095192301229D4920460B
:1018CC00FFF7D8FB002840F0728194F83C30012BD4
:1018DC0000F06F81012384F83C3023681A6812F001
:1018EC00010F03D11A6842F001021A6022681368D2
:1018FC0023F400631360222384F83D30102384F812
:10190C003E3000232364C4F82490A4F82A80638D0D
:10191C002385894BE3622B46324639462046FFF736
:10192C0093FC0746002840F04681238D5BB9039356
:10193C0023685A6903929A690392039A1A6842F4CB
:10194C0000721A6076E0012B0FD0022B21D0226896
:10195C00136843F4806313600023069323685A6969
:10196C0006929B690693069B64E02268136823F435
:10197C008063136072B60023049323685A6904923F
:10198C009A690492049A1A6842F400721A6062B658
:10199C0050E02268136843F40063136072B60023AE
:1019AC00059323685A6905929A690592059A1A68F3
:1019BC0022F480621A6062B63CE02A463146204628
:1019CC00FFF792FD002840F0F88023681A69636ADB
:1019DC001A70636A01336362238D013B2385638D27
:1019EC009BB2013B9BB2638524E072B622681368FC
:1019FC0043F40073136023681A69636A1A70636A8C
:101A0C0001336362238D013B2385638D9BB2013BC4
:101A1C009BB2638562B623681A69636A1A70636A3B
:101A2C0001336362238D013B2385638D9BB2013BA4
:101A3C009BB26385238D002B00F0B080032B00F24A
:101A4C008380012BB9D0022B0AD10095334600229A
:101A5C003A492046FFF70EFB0028C6D0012726E79F
:101A6C0000953346002235492046FFF703FB00283A
:101A7C0040F0A5802268136823F48063136072B66B
:101A8C0023681A69636A1A70636A01336362238D6F
:101A9C00013B2385638D9BB2013B9BB26385284B35
:101AAC001B68DB08274AA2FB03231B0A03EB8303F7
:101ABC00C3EBC3030793079B013B0793079B002BC7
:101ACC0028D023685A6912F0040FF4D01A6842F433
:101ADC0000721A6023681A69636A1A70636A0133A8
:101AEC006362238D013B2385638D9BB2013B9BB2CB
:101AFC00638562B623681A69636A1A70636A013374
:101B0C006362238D013B2385638D9BB2013B9BB2AA
:101B1C0063858FE72363202284F83D2084F83E30D0
:101B2C00226C42F02002226462B684F83C30012719
:101B3C00BDE600BF020010000000FFFF0400010022
:101B4C000800002089B5F8142A4631462046FFF7D4
:101B5C00CBFC002835D123681A69636A1A70626A53
:101B6C00531C6362238D013B2385638D9BB2013B28
:101B7C009BB263852368596911F0040F3FF45AAF87
:101B8C001B695370636A01336362238D013B2385A8
:101B9C00638D9BB2013B9BB263854BE7202384F89A
:101BAC003D30002384F83E3084F83C307FE6022739
:101BBC007DE602277BE6012779E6012777E60127F8
:101BCC0075E6012773E600BF2DE9F04383B00446A8
:101BDC000F46904699460C9EFEF702FE054694F879
:101BEC003D00C0B2202803D0022003B0BDE8F08332
:101BFC000095192301224B492046FFF73BFA002898
:101C0C0040F0898094F83C30012B00F08680012351
:101C1C0084F83C3023681A6812F0010F03D11A685B
:101C2C0042F001021A602268136823F40063136007
:101C3C00212384F83D30402384F83E300023236474
:101C4C000A9B6362BDF82C306385638D2385364B0C
:101C5C00E362019500964B46424639462046FFF713
:101C6C00ADFB00285BD1238D002B35D02A463146A5
:101C7C002046FFF779FB20BB626A236812781A6151
:101C8C00616A4B1C6362228D013A92B22285638D8C
:101C9C009BB2013B9BB263852368586910F0040F1B
:101CAC00E1D0002ADFD04A781A61636A013363629B
:101CBC00238D013B2385638D9BB2013B9BB26385D6
:101CCC00D1E7236C042B01D001208EE72268136826
:101CDC0043F400731360F7E72A4631462046FFF7BA
:101CEC00D9FB50B1236C042B01D001207DE7226875
:101CFC00136843F400731360F7E72268136843F426
:101D0C0000731360202384F83D30002384F83E30A8
:101D1C0084F83C3069E7022067E7022065E7012080
:101D2C0063E700BF020010000000FFFF82B0084B09
:101D3C001B68084AA2FB03235B0A00FB03F3019315
:101D4C0000BF019B5A1E0192002BF9D102B07047C3
:101D5C0008000020D34D6210002800F0F18170B50E
:101D6C0082B00446036813F0010F2CD0AA4B5B68B9
:101D7C0003F00C03042B1DD0A74B5B6803F00C0382
:101D8C00082B12D06368B3F5803F41D0002B55D19E
:101D9C0003F1804303F504331A6822F480321A608D
:101DAC001A6822F480221A6037E09B4B5B6813F4AC
:101DBC00803FE7D0984B1B6813F4003F03D0636857
:101DCC00002B00F0BF81236813F0020F75D0924BEB
:101DDC005B6813F00C0F5FD08F4B5B6803F00C0348
:101DEC00082B54D02369002B00F089808B4B0122E7
:101DFC001A60FEF7F5FC0546874B1B6813F0020FC3
:101E0C0074D1FEF7EDFC401B0228F5D903209EE1AE
:101E1C00814A136843F480331360636843B3FEF75D
:101E2C00DFFC05467C4B1B6813F4003FCBD1FEF75F
:101E3C00D7FC401B6428F5D9032088E1B3F5A02F0B
:101E4C0009D0754B1A6822F480321A601A6822F491
:101E5C0080221A60E1E703F18043A3F53C331A6852
:101E6C0042F480221A601A6842F480321A60D4E775
:101E7C00FEF7B6FC0546684B1B6813F4003FA2D076
:101E8C00FEF7AEFC401B6428F5D903205FE1624BE2
:101E9C005B6813F4803FA5D15F4B1B6813F0020FF6
:101EAC0003D02369012B40F04F815B4A136823F068
:101EBC00F803616943EAC1031360236813F0080F48
:101ECC0032D0A369002B45D0554B01221A60FEF786
:101EDC0087FC0546504B5B6A13F0020F21D1FEF7CD
:101EEC007FFC401B0228F5D9032030E14A4A1368D5
:101EFC0023F0F803616943EAC1031360DDE7474B44
:101F0C0000221A60FEF76CFC0546434B1B6813F06D
:101F1C00020FD2D0FEF764FC401B0228F5D9032037
:101F2C0015E10120FFF702FF236813F0040F00F006
:101F3C009780394BDB6913F0805F1DD1364BDA6922
:101F4C0042F08052DA61DB6903F080530193019B0C
:101F5C00012512E0324B00221A60FEF741FC0546C7
:101F6C002D4B5B6A13F0020FDED0FEF739FC401BE1
:101F7C000228F5D90320EAE000252A4B1B6813F44C
:101F8C00807F11D0E368012B22D0002B38D103F1D4
:101F9C00804303F504331A6A22F001021A621A6AAA
:101FAC0022F004021A6218E01E4A136843F480738C
:101FBC001360FEF715FC06461A4B1B6813F4807F62
:101FCC00E0D1FEF70DFC801B6428F5D90320BEE0A0
:101FDC00114A136A43F001031362E36873B3FEF70B
:101FEC00FFFB06460C4B1B6A13F0020F37D1FEF7B2
:101FFC00F7FB801B41F288339842F3D90320A6E00B
:10200C00052B11D0044B1A6A22F001021A621A6ACB
:10201C0022F004021A62E0E7001002400000424283
:10202C0080044242007000404D4B1A6A42F0040298
:10203C001A621A6A42F001021A62CEE7FEF7D0FB6E
:10204C000646474B1B6A13F0020F08D0FEF7C8FB7D
:10205C00801B41F288339842F3D9032077E0E5B92D
:10206C00E369002B72D03E4A526802F00C02082A37
:10207C0056D0022B17D03B4B00221A60FEF7B0FB58
:10208C000446374B1B6813F0007F47D0FEF7A8FBC4
:10209C00001B0228F5D9032059E0314AD36923F0FB
:1020AC008053D361DCE72F4B00221A60FEF798FBBC
:1020BC0005462B4B1B6813F0007F06D0FEF790FBF8
:1020CC00401B0228F5D9032041E0236AB3F5803F79
:1020DC001AD023494B6823F47413226A606A0243B2
:1020EC0013434B601F4B01221A60FEF779FB044629
:1020FC001B4B1B6813F0007F0ED1FEF771FB001B0E
:10210C000228F5D9032022E0154A536823F4003342
:10211C00A1680B435360DCE7002018E0002016E0B8
:10212C00012B16D00E4B5B6803F48031226A91426E
:10213C0011D103F47013626A93420ED1002006E0B1
:10214C0001207047012002E0012000E0002002B0D5
:10215C0070BD0120FBE70120F9E70120F7E700BF84
:10216C00001002406000424286B0164B0FCB0DF1BE
:10217C00180C0CE90F0040F20123ADF80430124B9F
:10218C005B6803F00C02082A02D0104806B07047B6
:10219C00C3F38342624412F8102C13F4803F0CD02A
:1021AC00094B5B68C3F34043634413F8143C074882
:1021BC0000FB02F0B0FBF3F0E8E7054800FB02F08F
:1021CC00E4E700BF5C2E00080010024000127A0009
:1021DC0000093D00002800F0A08070B50D460446B3
:1021EC00524B1B6803F007038B420BD24F4A136808
:1021FC0023F007030B431360136803F007038B42B0
:10220C0040F08D80236813F0020F17D013F0040FE9
:10221C0004D0474A536843F4E0635360236813F0D7
:10222C00080F04D0424A536843F460535360404A49
:10223C00536823F0F003A1680B435360236813F039
:10224C00010F31D06368012B20D0022B25D0384AE6
:10225C00126812F0020F64D035494A6822F003026A
:10226C0013434B60FEF7BCFA0646314B5B6803F038
:10227C000C036268B3EB820F16D0FEF7B1FA801B29
:10228C0041F288339842F0D9032045E0284A12687D
:10229C0012F4003FE0D101203EE0254A126812F012
:1022AC00007FD9D1012037E0204B1B6803F00703D6
:1022BC00AB420AD91D4A136823F007032B43136062
:1022CC00136803F00703AB422DD1236813F0040FFE
:1022DC0006D0174A536823F4E063E1680B4353605C
:1022EC00236813F0080F07D0114A536823F4605386
:1022FC00216943EAC1035360FFF736FF0C4B5B685F
:10230C00C3F303130B4AD35CD8400B4B18600B4B35
:10231C001868FEF723FA002070BD012070470120D9
:10232C00FAE70120F8E70120F6E700BF00200240A1
:10233C0000100240442E0008080000200400002079
:10234C00014B1868704700BF0800002008B5FFF764
:10235C00F7FF044B5B68C3F30223034AD35CD840FA
:10236C0008BD00BF00100240542E000808B5FFF74E
:10237C00E7FF044B5B68C3F3C223034AD35CD8402A
:10238C0008BD00BF00100240542E000810B50446D2
:10239C000268136923F44053C1680B4313618368CB
:1023AC000269134342691A430168CB6823F4B053A2
:1023BC0023F00C031343CB600268536923F440737E
:1023CC0081690B4353610268124B9A421FD0FFF78D
:1023DC00BDFF00EB800303EB830362689200B3FB49
:1023EC00F2F20D48A0FB02314909642303FB1123CF
:1023FC001B013233A0FB03235B0903F0F00202EB59
:10240C00011203F00F03216813448B6010BDFFF71A
:10241C00ADFFDEE7003801401F85EB5158B310B516
:10242C00044690F839300BB3242384F839302268F1
:10243C00D36823F40053D3602046FFF7A7FF22682C
:10244C00136923F4904313612268536923F02A0320
:10245C0053612268D36843F40053D3600020E063D7
:10246C00202384F8393084F83A3010BD80F83830A5
:10247C0000F04CFCD8E701207047000010B5044672
:10248C00FEF7AEF9001B312804D9034B01221A7058
:10249C00002010BD0120FCE79200002010B584B094
:1024AC00394B01221A70394C00232370FEF798F92E
:1024BC00A0606423029301230193344A00926B229F
:1024CC00D0213348FFF780FB28B1304B9868FFF7D9
:1024DC00D5FF0028EDD12D4C00232370FEF780F999
:1024EC00A0606423029301230193284A00921B22CB
:1024FC00D0212748FFF768FB28B1244B9868FFF7D9
:10250C00BDFF0028EDD1214C00232370FEF768F9A4
:10251C00A06064230293012301931C4A00921C22A5
:10252C00D0211B48FFF750FB28B1184B9868FFF7D8
:10253C00A5FF0028EDD1154C06232370FEF750F9AA
:10254C00A0606423029301230193104A00921A2283
:10255C00D0210F48FFF738FB28B10C4B9868FFF7D8
:10256C008DFF0028EDD100230A4A13800A4A1380FC
:10257C000A4A13800A4A13800A4A13800A4A1380B3
:10258C00014A137004B010BD9200002028000020F6
:10259C003C0000203A000020380000209800002069
:1025AC0090000020A00000209600002030B583B0E1
:1025BC00344C3B232370FEF713F9A0606423009383
:1025CC000123304AD0213048FFF7A2F828B12D4B17
:1025DC009868FFF753FF0028F0D1FEF701F9294B5B
:1025EC009860642300930623264AD0212648FFF7DF
:1025FC004BF928B1234B9868FFF740FF0028F0D126
:10260C00204B1A78587840EA02209A78DC7844EA11
:10261C00022424B21A795D7945EA02252DB200B262
:10262C00FEF70AF80022194BFDF78AFD0022184B21
:10263C00FDF786FDFEF76AF8164B18802046FDF76D
:10264C00FBFF0022114BFDF77BFD0022104BFDF729
:10265C0077FDFEF75BF804B22846FDF7EDFF00228C
:10266C000A4BFDF76DFD0022094BFDF769FDFEF7E6
:10267C004DF800B2143C084B1C809338074B188063
:10268C0003B030BD280000203C0000200000103FAB
:10269C0000408F403A0000203800002098000020B5
:1026AC0010B582B0284C43232370FEF799F8A06034
:1026BC00642300930123244AD0212448FFF728F8EF
:1026CC0028B1214B9868FFF7D9FE0028F0D1FEF70E
:1026DC0087F81D4B98606423009306231A4AD02177
:1026EC001A48FFF7D1F828B1174B9868FFF7C6FEC8
:1026FC000028F0D114480278437843EA02231BB235
:10270C008278C17841EA022109B20479427942EA1D
:10271C00042212B20E4880FB03C4DB17C3EB641314
:10272C001BB280FB01C4C917C1EB6411094C218099
:10273C0080FB0210D217C2EB601207490A800333E8
:10274C00064A138002B010BD280000203C00002077
:10275C003DCB883EA0000020960000209000002079
:10276C0010B5504C00224FF400512046FEF75AFC95
:10277C004FF400512046FEF75BFC3220FEF736F892
:10278C004FF400512046FEF753FC3220FEF72EF892
:10279C004FF400512046FEF74BFC3220FEF726F892
:1027AC004FF400512046FEF743FC3220FEF71EF892
:1027BC004FF400512046FEF73BFC3220FEF716F892
:1027CC004FF400512046FEF733FC3220FEF70EF892
:1027DC004FF400512046FEF72BFCA720FEF706F81D
:1027EC004FF400512046FEF723FCA720FDF7FEFF17
:1027FC004FF400512046FEF71BFCA720FDF7F6FF17
:10280C004FF400512046FEF713FCA720FDF7EEFF16
:10281C004FF400512046FEF70BFCA720FDF7E6FF16
:10282C004FF400512046FEF703FCA720FDF7DEFF16
:10283C004FF400512046FEF7FBFBA720FDF7D6FF17
:10284C004FF400512046FEF7F3FB3220FDF7CEFF8C
:10285C004FF400512046FEF7EBFB3220FDF7C6FF8C
:10286C004FF400512046FEF7E3FB3220FDF7BEFF8C
:10287C004FF400512046FEF7DBFB3220FDF7B6FF8C
:10288C004FF400512046FEF7D3FB3220FDF7AEFF8C
:10289C004FF400512046FEF7CBFB3220FDF7A6FF8C
:1028AC0010BD00BF00100140014B1878704700BFED
:1028BC009200002000B583B0244B93E8030002ABD8
:1028CC0003E90300224A234B1B881380224B1B88ED
:1028DC005380224B1B889380214B1978D180214B3C
:1028EC00214800881880214800885880204800889A
:1028FC009880D9801F4940F223130B601E4B1F4850
:10290C00FEF75CF878B11420FDF770FF19494FF40D
:10291C0092730B60184B6A461848FEF74FF858B183
:10292C0003B05DF804FB4FF4005100F1804000F55A
:10293C008830FEF77DFBE6E74FF4005100F1804054
:10294C0000F58830FEF774FBEAE700BF3C2E000868
:10295C00F400002090000020A00000209600002031
:10296C0092000020080100203A00002038000020CE
:10297C00980000202001002004010020CC00002041
:10298C0008B51948194B0360092343600023836081
:10299C00C3604FF4A02202614361037601224276A8
:1029AC008376C37603774377FDF734FF90B90E48EF
:1029BC00FDF7D6FF88B903210B48FEF775F878B9F7
:1029CC000B4B01225A600022DA609A6008211961CF
:1029DC001A7508BD00F03FF9E9E700F03CF9EAE7A9
:1029EC0000F039F9ECE700BFCC0000200064004097
:1029FC002001002030B587B0002302930393049389
:102A0C00059302681F4B9A4201D007B030BD03F505
:102A1C00D633DA6942F00072DA61DA6902F00072D8
:102A2C000092009A9A6942F004029A619B6903F041
:102A3C0004030193019B4FF400630293002403945D
:102A4C000494114D02A92846FEF7DCF94FF480538B
:102A5C000293022303930323059302A92846FEF74E
:102A6C00D1F9224621461320FEF774F91320FEF704
:102A7C00A5F9224621461420FEF76CF91420FEF726
:102A8C009DF9C2E7006400400008014030B589B0F0
:102A9C00002404940594069407941D4B9A6942F003
:102AAC0010029A619A6902F010020092009A9A69D7
:102ABC0042F020029A619A6902F020020192019A76
:102ACC009A6942F004029A619A6902F00402029235
:102ADC00029A9A6942F008029A619B6903F0080312
:102AEC000393039B0B4D22464FF400512846FEF7EF
:102AFC0099FA4FF40053049301230593069402238F
:102B0C00079304A92846FEF77DF909B030BD00BF34
:102B1C00001002400010014008B50B480B4B03603D
:102B2C000B4B436000238360C3604FF4804202610F
:102B3C0043618361C3610362FEF70CFD00B908BDFC
:102B4C0000F089F8FBE700BF3C0000200054004077
:102B5C00A086010010B586B0002302930393049362
:102B6C0005930268114B9A4201D006B010BD104C6F
:102B7C00A36943F00803A361A36903F0080300935E
:102B8C00009BC0230293122303930323059302A9F2
:102B9C000848FEF737F9E36943F40013E361E3698E
:102BAC0003F400130193019BDFE700BF00540040C6
:102BBC0000100240000C014030B591B00024099483
:102BCC000B940C94019402940394049405940122A4
:102BDC0006924FF48033079308940A9202250D95C0
:102BEC000E934FF4E0130F9306A8FFF7B5F80F23DD
:102BFC000193029503944FF4806304930594294642
:102C0C0001A8FFF7E7FA11B030BD08B5FDF7CAFD12
:102C1C00FFF7D2FFFFF73AFFFFF7B2FEFFF77CFF9B
:102C2C0000F05AF84FF4FA70FDF7E0FDFFF736FCB0
:102C3C0003E0FFF795FDFFF731FCFFF7B7FCFFF75B
:102C4C002FFDFFF737FE3220FDF7D0FDFFF72CFEEE
:102C5C000028F2D0EDE7704782B00E4B9A6942F033
:102C6C0001029A619A6902F001020092009ADA69F3
:102C7C0042F08052DA61DB6903F080530193019BCF
:102C8C00054A536823F0E06343F00073536002B0CD
:102C9C00704700BF00100240000001407047FEE783
:102CAC00FEE7FEE7FEE770477047704708B5FDF793
:102CBC008BFD08BD08B50248FDF715FF08BD00BF28
:102CCC00CC00002008B50248FDF70DFF08BD00BF81
:102CDC00CC0000207047000008B50A480A4B03607E
:102CEC004FF41653436000238360C36003610C22CE
:102CFC0042618361C361FFF791FB00B908BDFFF727
:102D0C00AAFFFBE7540100200038014010B586B043
:102D1C00002302930393049305930268174B9A4282
:102D2C0001D006B010BD03F558439A6942F48042B5
:102D3C009A619A6902F480420092009A9A6942F070
:102D4C0004029A619B6903F004030193019B4FF405
:102D5C00007302930223039303230593084C02A9E7
:102D6C002046FEF74FF84FF4806302930023039341
:102D7C00049302A92046FEF745F8D2E7003801403B
:102D8C0000080140002103E00B4B5B584350043119
:102D9C000A480B4B42189A42F6D30A4A02E0002327
:102DAC0042F8043B084B9A42F9D3FFF793FF00F02B
:102DBC000FF8FFF72AFF7047782E0008000000205C
:102DCC000C0000200C00002094010020FEE7000005
:102DDC0070B500260C4D0D4C641BA410A64209D1F5
:102DEC0000F01AF800260A4D0A4C641BA410A642E7
:102DFC0005D170BD55F8043B98470136EEE755F800
:102E0C00043B98470136F2E7702E0008702E00083C
:102E1C00702E0008742E0008F8B500BFF8BC08BC72
:102E2C009E467047F8B500BFF8BC08BC9E4670477C
:102E3C000000000000000000000000000000000086
:102E4C000102030406070809000000000102030444
:102E5C0002030405060708090A0B0C0D0E0F1010CF
:042E6C000000000062
:042E70003101000824
:042E74000D01000844
:0C2E780001000000100000000024F40025
:0400000508002D9131
:00000001FF
